:04000000D5EF1BF02D
:10377600E8CF01F001C0C9FFC7B01200FDD7949A87
:1037860094889496400EC76E200EC66E120001C035
:1037960028F002C029F02A6A2B6A036E010E2C6EED
:1037A6000350120000EE80F0800EEE6AE806FDE19E
:1037B6002C6A2B6A2A6A296A286A0001E3EF1BF041
:1037C600000E896E000E8A6E000E8B6E0F0EC16E95
:1037D600000E936EC2EC1BF0818AB0EC1DF0FCD794
:1037E60001500302F3CF05F0F4CF06F001500402B6
:1037F600F3CFF4FFF36AF3500526F4500622025085
:103806000302F3CFF4FFF36AF3500526F4500622C1
:1038160005C001F006C002F0120004500310D8B42F
:103826001AD0056E010E066E055004D0D8900336E8
:103836000436062A04AEFAD70350015C0450025837
:10384600D8A004D00350015E0450025AD890043226
:103856000332062EF1D701C001F002C002F01200B9
:103866003F0E0724096E000E08200A6E060E0B6E28
:10387600D8900A3209320B2EFBD709C001F00AC0D4
:1038860002F0000E046E030E036EF3EC1BF001C093
:1038960007F002C008F006D0000EBBEC1BF00706CE
:1038A600D8A0080608500710D8B41200F5D7000EA5
:1038B600096E000E0A6E000E0B6E000E0C6E01A055
:1038C60008D00550092606500A2207500B22085038
:1038D6000C22D8900536063607360836D8900432BC
:1038E6000332023201320450011002100310D8A430
:1038F600E6D709C001F00AC002F00BC003F00CC005
:1039060004F012002C6606D0000E026E010E016E47
:10391600CAEC1BF028C001F029C002F02AC003F04F
:103926002BC004F06D0E056E4E0E066EC60E076EAB
:10393600410E086E5AEC1CF001C00FF002C010F0E8
:1039460003C011F004C012F0390E0F24286E300E99
:103956001020296E000E11202A6E000E12202B6EEA
:10396600FF0E2A140D6E7F0E2B140E6E1200000E23
:10397600196E000E1A6E000E1B6E000E1C6E000EE7
:103986001E6E1F0E1D6E1E501D10D8B43AD0FC0EB2
:10399600136EFF0E146E1DC015F01EC016F0D890E3
:1039A60015361636D8901536163613501526145079
:1039B60016220001800E1524D96E0001000E162075
:1039C600DA6E1DC017F01EC018F0D89017361836DC
:1039D600D890173618360001800E1724E16E0001C4
:1039E600000E1820E26EDECFE6FFDECFE6FFDECF6A
:1039F600E6FFDDCFE5FFE552E5521D06D8A01E061F
:103A0600C2D7000E1E6E000E1D6E030E1D5C000E4C
:103A16001E58D8B01DD01BC01CF01AC01BF019C010
:103A26001AF0196A85EC1CF00DC013F00EC014F0E4
:103A3600000E14BEFF0E156E166E1350191214509A
:103A46001A1215501B1216501C121D4A1E2ADDD7BB
:103A560019C080F01AC081F01BC082F01CC083F030
:103A66001200000E166E000E156E200E155C000E6E
:103A76001658D8B06BD015C00CF016C00DF0D89003
:103A86000C360D36D8900C360D360001800E0C24FF
:103A9600D96E0001000E0D20DA6EDF50146E15C0CF
:103AA6000CF016C00DF0D8900C360D36D8900C36AA
:103AB6000D360001800E0C24D96E0001000E0D207B
:103AC600DA6EDECF0EF0DECF0FF0DECF10F0DECFF7
:103AD60011F00FC00EF010C00FF011C010F0116AF7
:103AE6000E50136E15C00CF016C00DF0D8900C36A3
:103AF6000D36D8900C360D360001800E0C24D96E8A
:103B06000001000E0D20DA6EDECF0EF0DECF0FF0D4
:103B1600DECF10F0DECF11F0110E05D0D8901132A5
:103B260010320F320E32E82EF9D70E50126E1350A5
:103B36008009BBEC1BF012508009BBEC1BF0145043
:103B46008009BBEC1BF0154A162A8FD7000E086EAB
:103B5600200E076E33EC1CF01200000E226E000ED3
:103B6600216E900E215C010E2258D8B00BD0210E8A
:103B76001F6E760EE82EFED71F2EFCD700D0214AE8
:103B8600222AEFD7000E226E000E216E200E215C37
:103B9600000E2258D8B01FD021C01FF022C020F03E
:103BA600D8901F362036D8901F3620360001800E5A
:103BB6001F24D96E0001000E2020DA6E000EDE6E84
:103BC600000EDE6E000EDE6E000EDD6EDD52DD5284
:103BD600214A222ADBD734EC1DF0000E0001000139
:103BE600806F000E0001816FFF0E0001826F000ED4
:103BF6000001836F000E00010001846FFF0E0001BB
:103C0600856F000E0001866F000E0001876FFF0EA4
:103C160000010001886F000E0001896F000E00018F
:103C26008A6F000E00018B6FFF0E000100018C6F82
:103C3600FF0E00018D6F000E00018E6F000E000159
:103C46008F6FFF0E00010001906F000E0001916F53
:103C5600FF0E0001926F000E0001936F000E00012F
:103C66000001946FFF0E0001956FFF0E0001966F25
:103C7600000E0001976F34EC1DF0000E226E000E50
:103C8600216EE80E215C030E2258D8B00BD0210E0F
:103C96001F6E760EE82EFED71F2EFCD700D0214AC7
:103CA600222AEFD7000E226E000E216E200E215C16
:103CB600000E2258D8B082D021C001F022C002F0F6
:103CC600000E046E030E036E10EC1CF00250011081
:103CD600D8A41CD021C01FF022C020F0D8901F36D7
:103CE6002036D8901F3620360001800E1F24D96E4C
:103CF6000001000E2020DA6E000EDE6E000EDE6E73
:103D0600FF0EDE6E000EDD6EDD52DD5221C001F0CB
:103D160022C002F0000E046E030E036E10EC1CF0BF
:103D260001040210D8A41CD021C01FF022C020F02C
:103D3600D8901F362036D8901F3620360001800EC8
:103D46001F24D96E0001000E2020DA6EFF0EDE6EF3
:103D5600FF0EDE6EFF0EDE6E000EDD6EDD52DD52F4
:103D660021C001F022C002F0000E046E030E036EA5
:103D760010EC1CF00150020A0210D8A41CD021C07D
:103D86001FF022C020F0D8901F362036D8901F365C
:103D960020360001800E1F24D96E0001000E20205F
:103DA600DA6EFF0EDE6E000EDE6E000EDE6E000EAA
:103DB600DD6EDD52DD52214A222A78D734EC1DF021
:103DC600000E226E000E216ED00E215C070E2258C8
:103DD600D8B00BD0210E1F6E760EE82EFED71F2E02
:103DE600FCD700D0214A222AEFD7000E226E000E01
:103DF600216E200E215C000E2258D8B03FD021B093
:103E06001CD021C01FF022C020F0D8901F362036CB
:103E1600D8901F3620360001800E1F24D96E00016F
:103E2600000E2020DA6E000EDE6EFF0EDE6E000E35
:103E3600DE6E000EDD6EDD52DD5221A01CD021C0EB
:103E46001FF022C020F0D8901F362036D8901F369B
:103E560020360001800E1F24D96E0001000E20209E
:103E6600DA6EFF0EDE6EFF0EDE6EFF0EDE6E000EEB
:103E7600DD6EDD52DD52214A222ABBD734EC1DF01D
:103E8600000E226E000E216ED00E215C070E225807
:103E9600D8B00BD0210E1F6E760EE82EFED71F2E41
:103EA600FCD700D0214A222AEFD7000E226E000E40
:103EB600216E200E215C000E2258D8B03FD021B0D2
:103EC6001CD021C01FF022C020F0D8901F3620360B
:103ED600D8901F3620360001800E1F24D96E0001AF
:103EE600000E2020DA6EFF0EDE6E000EDE6E000E75
:103EF600DE6E000EDD6EDD52DD5221A01CD021C02B
:103F06001FF022C020F0D8901F362036D8901F36DA
:103F160020360001800E1F24D96E0001000E2020DD
:103F2600DA6EFF0EDE6EFF0EDE6EFF0EDE6E000E2A
:103F3600DD6EDD52DD52214A222ABBD734EC1DF05C
:103F4600000E226E000E216ED00E215C070E225846
:103F5600D8B00BD0210E1F6E760EE82EFED71F2E80
:103F6600FCD700D0214A222AEFD7000E226E000E7F
:103F7600216E200E215C000E2258D8B01FD021C021
:103F86001FF022C020F0D8901F362036D8901F365A
:103F960020360001800E1F24D96E0001000E20205D
:103FA600DA6E000EDE6E000EDE6E000EDE6E000EA7
:103FB600DD6EDD52DD52214A222ADBD734EC1DF0BC
:103FC600BAEC1CF034EC1DF0000E226E000E216ED1
:103FD600140E215C000E2258D8B0F2D7210E1F6EA7
:103FE600760EE82EFED71F2EFCD700D0214A222AB5
:023FF600EFD703
:063FF800A0F4C6FFFFF17A
:00000001FF
