:04000000B5EF1FF049
:103F6A000001CEEF1FF001508112E80E00D0E82EBA
:103F7A00FDD700D00150FF0A8116120001508212AB
:103F8A00E80E00D0E82EFDD700D00150FF0A8216B5
:103F9A001200000E896E000E8A6E000E8B6E0F0ED6
:103FAA00C16E000E936E000E946E000E026E200E0D
:103FBA00016EB8EC1FF0E80E00D0E82EFDD700D055
:103FCA00000E026E010E016EB8EC1FF0E80E00D072
:103FDA00E82EFDD700D0000E026E010E016EC3EC72
:0E3FEA001FF0E80E00D0E82EFDD700D0DED785
:063FF800A0F4C3FFFFF17D
:00000001FF
