:0400000071EF19F093
:1032D000949A948894969480400EC76E200EC66E81
:1032E000120000EE80F0800EEE6AE806FDE1456A0D
:1032F000446A436A426A416A000EF86E00013DEF7B
:103300001AF0E8CF01F0C00EC76E200EC66E949082
:103310009E96130EC96E9EA6FED79E9601C0C9FF4B
:103320009EA6FED794801200E8CF05F009D0010ECA
:1033300005D0050E03D0090E01D00D0EC26E0DD0C2
:103340000550000AD8B4F3D7010AD8B4F2D7030A5B
:10335000D8B4F1D7010AD8B4F0D7C2B2FED7C3CFE0
:1033600003F0046AC450042603C001F004C002F054
:103370001200096E000E0B6E09500850800A800F73
:1033800008E1000E075C05E1000E065C02E1000E9C
:10339000055CD8B00CD0081E071E061E056C000E7A
:1033A000062207220822096E010E0B6E09500450F6
:1033B000800A800F08E1000E035C05E1000E025C4C
:1033C00002E1000E015CD8B00AD0041E031E021EEA
:1033D000016C000E022203220422010E0B1A000EC1
:1033E0000C6E000E0D6E000E0E6E000E0F6E08506D
:1033F000051006100710D8B42CD0096E010E0A6E05
:10340000095006D0D89005360636073608360A2AFF
:1034100008AEF8D7D8900C360D360E360F3605505C
:10342000015C065002580750035808500458D8A0B1
:1034300009D00550015E0650025A0750035A085041
:10344000045A0C80D89008320732063205320A2E10
:10345000E1D70B50D8B408D00F1E0E1E0D1E0C6CF9
:10346000000E0D220E220F220CC001F00DC002F042
:103470000EC003F00FC004F012000B0EC16EB50EAB
:10348000C06E0F0E926E000E936E000E946E000EC4
:10349000806E000E816E000E826E68EC19F0000ED8
:1034A000256E000E246E000E156E000E146E000EBA
:1034B000176E000E166E000E196E000E186EF29446
:1034C000F90ED76EE40ED66E840ED56E000E2C6EFD
:1034D000500E2B6E2B5081EC19F0000E1F6E000E5B
:1034E0001E6E000E1A6E000E1B6E000E1C6E000E7D
:1034F0001D6E000E286E000E276E000E3D6E000E33
:103500003C6E000E2E6E000E2D6E000E376E000EFD
:10351000366E000E306E000E2F6E000E216E000E05
:10352000206E106E000E356E1050000E346E000EC0
:10353000336E106E000E386E1050106E000E3E6E20
:103540001050000E406E000E3F6E000E3B6E000EDF
:103550003A6E106E000E396E1050000E326E000E74
:10356000316E000E236E000E226E106E000E266E5F
:103570001050000E2A6E000E296EF2A413D0334AAA
:10358000342A3450800A7D0FE90ED8B4335CD8A0B9
:1035900004D0000E346E000E336EF90ED76EE40EBA
:1035A000D66EF294000E94EC19F001C024F002C023
:1035B00025F03504D8B40AD0106E010E356E1050C7
:1035C00093969398939A93909392939418C010F033
:1035D00019C011F0000E11BEFF0E126E136E1050C6
:1035E0001A2611501B2212501C2213501D221E4A53
:1035F0001F2A1E50C80A1F10D8A475D01AC001F087
:103600001BC002F01CC003F01DC004F01EC005F07A
:103610001FC006F0000E06BEFF0E076E086EB9EC66
:1036200019F001C010F002C011F003C012F004C084
:1036300013F010C027F011C028F02C50800AF36E50
:10364000800EF35CFB0ED8B42B5CD8B023D02C508A
:10365000800A800F0A0ED8B42B5CD8A01BD028504B
:10366000800AF36E800EF35C640ED8B4275CD8B089
:1036700004D0040E2B26000E2C222850800A800F26
:10368000650ED8B4275CD8A01FD0FC0E2B26FF0EE9
:103690002C221AD02C50800AF36E800EF35C0A0E96
:1036A000D8B42B5CD8B004D0000E2C6E0B0E2B6E51
:1036B0002C50800A800FFB0ED8B42B5CD8A004D00D
:1036C000000E2C6EF90E2B6E2B5081EC19F0000EB3
:1036D0001F6E000E1E6E000E1A6E000E1B6E000E88
:1036E0001C6E000E1D6E3504D8A44CD026661AD070
:1036F0002850800A800F500ED8B4275CD8A003D081
:10370000224A232A04D0000E236E000E226E23507C
:10371000800A7B0FDD0ED8B4225CD8A024D0106EB6
:10372000010E1BD02850800AF36E800EF35C320E1F
:10373000D8B4275CD8B003D0224A232A04D0000E84
:10374000236E000E226E2350800A590F110ED8B43A
:10375000225CD8A008D0106E000E266E1050000E0D
:10376000236E000E226E266602D0938601D09396B9
:103770002604D8A403D0106E020E02D0106E000EE4
:10378000356E105035667DD32550800A7E0F590E58
:10379000D8B4245CD8A008D02A502910D8A404D0CA
:1037A000000E2A6E010E296E2A50800A800F010E2B
:1037B000D8B4295CD8A002D0294A2A2A2A50800AE3
:1037C0007D0FE90ED8B4295CD8A02FD02550800AEF
:1037D000F36E820EF35C580ED8B4245CD8B021D0BE
:1037E000000E2A6E000E296E382A106E000E3E6EF4
:1037F0001050000E406E000E3F6E000E3B6E000E2D
:103800003A6E106E000E396E1050000E326E000EC1
:10381000316E040E386409D0106E000E386E1050F0
:1038200004D0000E2A6E010E296E2A50800A800FE5
:10383000010ED8B4295CD8A002D0938A01D0939A03
:103840003866CFD03E661ED040503B1802E13F5054
:103850003A18D8B413D03FC03AF040C03BF03B50C8
:10386000800AF36E800EF35C100ED8B43A5CD8B0C8
:1038700003D0020E392602D0020E395E39C02FF075
:10388000306A04D0000E306E000E2F6E3E04D8A4B5
:103890001ED040503B1802E13F503A18D8B413D024
:1038A0003FC03AF040C03BF03B50800AF36E800EC0
:1038B000F35C100ED8B43A5CD8B003D0020E3926AF
:1038C00002D0020E395E39C036F0376A08D03E5059
:1038D000030AD8B404D0000E376E000E366E3E5088
:1038E000020AD8A41ED040503B1802E13F503A18BB
:1038F000D8B413D03FC03AF040C03BF03B50800AF0
:10390000F36E800EF35C100ED8B43A5CD8B003D0DE
:10391000020E392602D0020E395E39C02DF02E6A11
:1039200004D0000E2E6E000E2D6E3E50030AD8A459
:103930001ED040503B1802E13F503A18D8B413D083
:103940003FC03AF040C03BF03B50800AF36E800E1F
:10395000F35C100ED8B43A5CD8B003D0020E39260E
:1039600002D0020E395E39C036F0376A07D03E0405
:10397000D8B404D0000E376E000E366E3450800A74
:10398000800F070ED8B4335CD8A02BD03F4A402A12
:10399000000E346E000E336E3F501F0A4010D8A444
:1039A00020D0000E406E000E3F6E3E2A106E000EBC
:1039B000396E10503E50040AD8A413D0106E000E79
:1039C0003E6E1050314A322A3250800A800F0B0E60
:1039D000D8B4315CD8A005D0000E326E000E316E26
:1039E000382A3804D8A43FD0000E306E1F0E2F6E38
:1039F000000E376E1F0E366E000E2E6E1F0E2D6ED1
:103A00003450800A800F090ED8B4335CD8A02BD074
:103A10003F4A402A000E346E000E336E3F50030AB8
:103A20004010D8A420D0000E406E000E3F6E3E2AFB
:103A3000106E000E396E10503E50050AD8A413D0F7
:103A4000106E000E3E6E1050314A322A3250800AFB
:103A5000800F290ED8B4315CD8A005D0000E326E8C
:103A6000000E316E382A3850020AD8A400D13E66C2
:103A700025D040503F10D8A404D0000E306E1F0E49
:103A800003D0000E306E000E2F6E3F044010D8A4FD
:103A900004D0000E376E1F0E03D0000E376E000EDE
:103AA000366E3F50020A4010D8A404D0000E2E6E8D
:103AB0001F0E03D0000E2E6E000E2D6E3E04D8A4F5
:103AC00025D040503F10D8A404D0000E306E1F0EF9
:103AD00003D0000E306E000E2F6E3F044010D8A4AD
:103AE00004D0000E2E6E1F0E03D0000E2E6E000EA0
:103AF0002D6E3F50020A4010D8A404D0000E376E3D
:103B00001F0E03D0000E376E000E366E3E50020AB6
:103B1000D8A425D040503F10D8A404D0000E2E6E5B
:103B20001F0E03D0000E2E6E000E2D6E3F044010AF
:103B3000D8A404D0000E306E1F0E03D0000E306EDD
:103B4000000E2F6E3F50020A4010D8A404D0000E81
:103B5000376E1F0E03D0000E376E000E366E3E50CD
:103B6000030AD8A428D040503F10D8A405D0000E96
:103B70002E6E1F0E2D6E04D0000E306E000E2F6EB6
:103B80003F044010D8A405D0000E376E1F0E366ECD
:103B900004D0000E2E6E000E2D6E3F50020A401013
:103BA000D8A405D0000E306E1F0E2F6E04D0000E6C
:103BB000376E000E366E3E50040AD8A425D0405011
:103BC0003F10D8A404D0000E376E1F0E03D0000E95
:103BD000376E000E366E3F044010D8A404D0000E9D
:103BE000306E1F0E03D0000E306E000E2F6E3F5051
:103BF000020A4010D8A404D0000E2E6E1F0E03D06F
:103C0000000E2E6E000E2D6E3450800A800F090EAD
:103C1000D8B4335CD8A02BD03F4A402A000E346E73
:103C2000000E336E3F50030A4010D8A420D0000E7F
:103C3000406E000E3F6E3E2A106E000E396E105020
:103C40003E50050AD8A413D0106E000E3E6E1050E0
:103C5000314A322A3250800A800F1F0ED8B4315CAC
:103C6000D8A005D0000E326E000E316E382A3850C2
:103C7000030AD8A457D03E6623D040503B1802E137
:103C80003F503A18D8B413D03FC03AF040C03BF090
:103C90003B50800AF36E800EF35C100ED8B43A5C91
:103CA000D8B003D0020E392602D0020E395E39C0D8
:103CB0002FF0306A39C036F0376A39C02DF02E6ADD
:103CC0003450800A800F040ED8B4335CD8A02AD0B8
:103CD0003F4A402A000E346E000E336E3F501F0ADA
:103CE0004010D8A41FD0000E406E000E3F6E3E2A3A
:103CF000106E000E396E10503E04D8A413D0106E12
:103D0000000E3E6E1050314A322A3250800A800F27
:103D10003D0ED8B4315CD8A005D0000E326E000E36
:103D2000316E382A3850040AD8A46FD03E663BD092
:103D300040503F10D8A404D0000E306E1F0E03D0A8
:103D4000000E306E000E2F6E3F044010D8A404D039
:103D5000000E376E1F0E08D03F50030A4010D8B433
:103D600004D0000E376E000E366E3F50020A40102F
:103D7000D8A404D0000E2E6E1F0E03D0000E2E6E9F
:103D8000000E2D6E3F50030A4010D8A404D0000E40
:103D9000376E1F0E07D03F044010D8B404D0000E79
:103DA000376E000E366E3450800A800F090ED8B47C
:103DB000335CD8A02AD03F4A402A000E346E000E51
:103DC000336E3F50040A4010D8A41FD0000E406E3E
:103DD000000E3F6E3E2A106E000E396E10503E04EB
:103DE000D8A413D0106E000E3E6E1050314A322A05
:103DF0003250800A800F650ED8B4315CD8A005D04F
:103E0000000E326E000E316E382A040E386404D073
:103E1000106E000E386E10503D50800A106E2F50FC
:103E20003C5C3050800A1058D8B002D0938401D046
:103E300093943D50800A106E36503C5C3750800A97
:103E40001058D8B002D0938201D093923D50800A8E
:103E5000106E2D503C5C2E50800A1058D8B002D005
:103E6000938001D093903C4A3D2A3D50800A800FB8
:103E7000200ED8B43C5CD8A004D0000E3D6E000EDD
:103E80003C6E3550020AD8A4BDEF1AF02150201024
:103E9000D8A421D03050800A800F010ED8B42F5CF6
:103EA000D8A003D02F06D8A030063750800A800F44
:103EB000010ED8B4365CD8A003D03606D8A0370699
:103EC0002E50800A800F010ED8B42D5CD8A003D0EC
:103ED0002D06D8A02E062550800A800F970ED8B444
:103EE000245CD8A004D0000E306E1F0E2F6E15502B
:103EF000800A7E0F090ED8B4145CD8A004D0000E3E
:103F0000376E1F0E366E1750800A7F0FD70ED8B44B
:103F1000165CD8A004D0000E2E6E1F0E2D6E3D50E4
:103F2000800A106E2F503C5C3050800A1058D8B078
:103F300002D0938401D093943D50800A106E365085
:103F40003C5C3750800A1058D8B002D0938201D020
:103F500093923D50800A106E2D503C5C2E50800A8A
:103F60001058D8B002D0938001D093903D50800A71
:103F7000106E2F503C5C3050800A1058D8B002D0E0
:103F8000938A01D0939A3D50800A106E36503C5C63
:103F90003750800A1058D8B002D0938801D0939837
:103FA0003D50800A106E2D503C5C2E50800A1058F7
:103FB000D8B002D0938601D093963C4A3D2A3D501A
:103FC000800A800F200ED8B43C5CD8A004D0000E2C
:103FD0003D6E000E3C6E204A212A2150800A800F3F
:103FE0001F0ED8B4205CD8A0BDEF1AF0000E216ED1
:083FF000000E206EBDEF1AF077
:063FF800A0F4C6FFFFF17A
:00000001FF
